{
  "contractName": "EthTransactionManager",
  "abi": [
    {
      "anonymous": false,
      "inputs": [
        {
          "indexed": true,
          "internalType": "address",
          "name": "from",
          "type": "address"
        },
        {
          "indexed": true,
          "internalType": "address",
          "name": "to",
          "type": "address"
        },
        {
          "indexed": false,
          "internalType": "uint256",
          "name": "amount",
          "type": "uint256"
        },
        {
          "indexed": false,
          "internalType": "uint256",
          "name": "timestamp",
          "type": "uint256"
        }
      ],
      "name": "Transfer",
      "type": "event"
    },
    {
      "inputs": [
        {
          "internalType": "uint256",
          "name": "",
          "type": "uint256"
        }
      ],
      "name": "transactions",
      "outputs": [
        {
          "internalType": "address",
          "name": "sender",
          "type": "address"
        },
        {
          "internalType": "address",
          "name": "recipient",
          "type": "address"
        },
        {
          "internalType": "uint256",
          "name": "amount",
          "type": "uint256"
        },
        {
          "internalType": "uint256",
          "name": "timestamp",
          "type": "uint256"
        }
      ],
      "stateMutability": "view",
      "type": "function",
      "constant": true
    },
    {
      "inputs": [
        {
          "internalType": "address payable",
          "name": "_recipient",
          "type": "address"
        }
      ],
      "name": "transferETH",
      "outputs": [],
      "stateMutability": "payable",
      "type": "function",
      "payable": true
    },
    {
      "inputs": [
        {
          "internalType": "uint256",
          "name": "_count",
          "type": "uint256"
        }
      ],
      "name": "getLastTransactions",
      "outputs": [
        {
          "internalType": "uint256[]",
          "name": "",
          "type": "uint256[]"
        },
        {
          "components": [
            {
              "internalType": "address",
              "name": "sender",
              "type": "address"
            },
            {
              "internalType": "address",
              "name": "recipient",
              "type": "address"
            },
            {
              "internalType": "uint256",
              "name": "amount",
              "type": "uint256"
            },
            {
              "internalType": "uint256",
              "name": "timestamp",
              "type": "uint256"
            }
          ],
          "internalType": "struct EthTransactionManager.Transaction[]",
          "name": "",
          "type": "tuple[]"
        }
      ],
      "stateMutability": "view",
      "type": "function",
      "constant": true
    },
    {
      "inputs": [
        {
          "internalType": "uint256",
          "name": "_id",
          "type": "uint256"
        }
      ],
      "name": "getTransaction",
      "outputs": [
        {
          "internalType": "uint256",
          "name": "",
          "type": "uint256"
        },
        {
          "components": [
            {
              "internalType": "address",
              "name": "sender",
              "type": "address"
            },
            {
              "internalType": "address",
              "name": "recipient",
              "type": "address"
            },
            {
              "internalType": "uint256",
              "name": "amount",
              "type": "uint256"
            },
            {
              "internalType": "uint256",
              "name": "timestamp",
              "type": "uint256"
            }
          ],
          "internalType": "struct EthTransactionManager.Transaction",
          "name": "",
          "type": "tuple"
        }
      ],
      "stateMutability": "view",
      "type": "function",
      "constant": true
    }
  ],
  "bytecode": "0x608060405234801561001057600080fd5b50610e1e806100206000396000f3fe60806040526004361061003f5760003560e01c8063044684f61461004457806333ea3dc8146100825780639ace38c2146100c0578063d50f6bf014610100575b600080fd5b34801561005057600080fd5b5061006b600480360381019061006691906108b4565b61011c565b604051610079929190610b74565b60405180910390f35b34801561008e57600080fd5b506100a960048036038101906100a491906108b4565b61040c565b6040516100b7929190610beb565b60405180910390f35b3480156100cc57600080fd5b506100e760048036038101906100e291906108b4565b61057d565b6040516100f79493929190610b2f565b60405180910390f35b61011a6004803603810190610115919061088b565b6105fd565b005b60608060008080549050905080841115610134578093505b60008467ffffffffffffffff811115610176577f4e487b7100000000000000000000000000000000000000000000000000000000600052604160045260246000fd5b6040519080825280602002602001820160405280156101a45781602001602082028036833780820191505090505b50905060008567ffffffffffffffff8111156101e9577f4e487b7100000000000000000000000000000000000000000000000000000000600052604160045260246000fd5b60405190808252806020026020018201604052801561022257816020015b61020f61080d565b8152602001906001900390816102075790505b50905060005b868110156103fd576000600182866102409190610cc0565b61024a9190610cc0565b905080848381518110610286577f4e487b7100000000000000000000000000000000000000000000000000000000600052603260045260246000fd5b602002602001018181525050600081815481106102cc577f4e487b7100000000000000000000000000000000000000000000000000000000600052603260045260246000fd5b90600052602060002090600402016040518060800160405290816000820160009054906101000a900473ffffffffffffffffffffffffffffffffffffffff1673ffffffffffffffffffffffffffffffffffffffff1673ffffffffffffffffffffffffffffffffffffffff1681526020016001820160009054906101000a900473ffffffffffffffffffffffffffffffffffffffff1673ffffffffffffffffffffffffffffffffffffffff1673ffffffffffffffffffffffffffffffffffffffff168152602001600282015481526020016003820154815250508383815181106103de577f4e487b7100000000000000000000000000000000000000000000000000000000600052603260045260246000fd5b60200260200101819052505080806103f590610d42565b915050610228565b50818194509450505050915091565b600061041661080d565b600080549050831061045d576040517f08c379a000000000000000000000000000000000000000000000000000000000815260040161045490610bcb565b60405180910390fd5b8260008481548110610498577f4e487b7100000000000000000000000000000000000000000000000000000000600052603260045260246000fd5b9060005260206000209060040201806040518060800160405290816000820160009054906101000a900473ffffffffffffffffffffffffffffffffffffffff1673ffffffffffffffffffffffffffffffffffffffff1673ffffffffffffffffffffffffffffffffffffffff1681526020016001820160009054906101000a900473ffffffffffffffffffffffffffffffffffffffff1673ffffffffffffffffffffffffffffffffffffffff1673ffffffffffffffffffffffffffffffffffffffff16815260200160028201548152602001600382015481525050905091509150915091565b6000818154811061058d57600080fd5b90600052602060002090600402016000915090508060000160009054906101000a900473ffffffffffffffffffffffffffffffffffffffff16908060010160009054906101000a900473ffffffffffffffffffffffffffffffffffffffff16908060020154908060030154905084565b60003411610640576040517f08c379a000000000000000000000000000000000000000000000000000000000815260040161063790610bab565b60405180910390fd5b8073ffffffffffffffffffffffffffffffffffffffff166108fc349081150290604051600060405180830381858888f19350505050158015610686573d6000803e3d6000fd5b50600060405180608001604052803373ffffffffffffffffffffffffffffffffffffffff1681526020018373ffffffffffffffffffffffffffffffffffffffff16815260200134815260200142815250908060018154018082558091505060019003906000526020600020906004020160009091909190915060008201518160000160006101000a81548173ffffffffffffffffffffffffffffffffffffffff021916908373ffffffffffffffffffffffffffffffffffffffff16021790555060208201518160010160006101000a81548173ffffffffffffffffffffffffffffffffffffffff021916908373ffffffffffffffffffffffffffffffffffffffff160217905550604082015181600201556060820151816003015550508073ffffffffffffffffffffffffffffffffffffffff163373ffffffffffffffffffffffffffffffffffffffff167f9ed053bb818ff08b8353cd46f78db1f0799f31c9e4458fdb425c10eccd2efc443442604051610802929190610c14565b60405180910390a350565b6040518060800160405280600073ffffffffffffffffffffffffffffffffffffffff168152602001600073ffffffffffffffffffffffffffffffffffffffff16815260200160008152602001600081525090565b60008135905061087081610dba565b92915050565b60008135905061088581610dd1565b92915050565b60006020828403121561089d57600080fd5b60006108ab84828501610861565b91505092915050565b6000602082840312156108c657600080fd5b60006108d484828501610876565b91505092915050565b60006108e98383610a67565b60808301905092915050565b60006109018383610b11565b60208301905092915050565b61091681610cf4565b82525050565b61092581610cf4565b82525050565b600061093682610c5d565b6109408185610c8d565b935061094b83610c3d565b8060005b8381101561097c57815161096388826108dd565b975061096e83610c73565b92505060018101905061094f565b5085935050505092915050565b600061099482610c68565b61099e8185610c9e565b93506109a983610c4d565b8060005b838110156109da5781516109c188826108f5565b97506109cc83610c80565b9250506001810190506109ad565b5085935050505092915050565b60006109f4602083610caf565b91507f416d6f756e74206d7573742062652067726561746572207468616e207a65726f6000830152602082019050919050565b6000610a34601a83610caf565b91507f5472616e73616374696f6e20646f6573206e6f742065786973740000000000006000830152602082019050919050565b608082016000820151610a7d600085018261090d565b506020820151610a90602085018261090d565b506040820151610aa36040850182610b11565b506060820151610ab66060850182610b11565b50505050565b608082016000820151610ad2600085018261090d565b506020820151610ae5602085018261090d565b506040820151610af86040850182610b11565b506060820151610b0b6060850182610b11565b50505050565b610b1a81610d38565b82525050565b610b2981610d38565b82525050565b6000608082019050610b44600083018761091c565b610b51602083018661091c565b610b5e6040830185610b20565b610b6b6060830184610b20565b95945050505050565b60006040820190508181036000830152610b8e8185610989565b90508181036020830152610ba2818461092b565b90509392505050565b60006020820190508181036000830152610bc4816109e7565b9050919050565b60006020820190508181036000830152610be481610a27565b9050919050565b600060a082019050610c006000830185610b20565b610c0d6020830184610abc565b9392505050565b6000604082019050610c296000830185610b20565b610c366020830184610b20565b9392505050565b6000819050602082019050919050565b6000819050602082019050919050565b600081519050919050565b600081519050919050565b6000602082019050919050565b6000602082019050919050565b600082825260208201905092915050565b600082825260208201905092915050565b600082825260208201905092915050565b6000610ccb82610d38565b9150610cd683610d38565b925082821015610ce957610ce8610d8b565b5b828203905092915050565b6000610cff82610d18565b9050919050565b6000610d1182610d18565b9050919050565b600073ffffffffffffffffffffffffffffffffffffffff82169050919050565b6000819050919050565b6000610d4d82610d38565b91507fffffffffffffffffffffffffffffffffffffffffffffffffffffffffffffffff821415610d8057610d7f610d8b565b5b600182019050919050565b7f4e487b7100000000000000000000000000000000000000000000000000000000600052601160045260246000fd5b610dc381610d06565b8114610dce57600080fd5b50565b610dda81610d38565b8114610de557600080fd5b5056fea2646970667358221220267cb997770143f8283c0335085a23fb6e469de723a732dd0965804f2621476f64736f6c63430008000033",
  "immutableReferences": {},
  "source": "// SPDX-License-Identifier: MIT\npragma solidity ^0.8.0;\n\ncontract EthTransactionManager {\n    struct Transaction {\n        address sender;\n        address recipient;\n        uint amount;\n        uint timestamp;\n    }\n\n    Transaction[] public transactions;\n\n    event Transfer(address indexed from, address indexed to, uint amount, uint timestamp);\n\n    // Transfer ETH and log the transaction\n    function transferETH(address payable _recipient) public payable {\n        require(msg.value > 0, \"Amount must be greater than zero\");\n        _recipient.transfer(msg.value);\n        transactions.push(Transaction(msg.sender, _recipient, msg.value, block.timestamp));\n        emit Transfer(msg.sender, _recipient, msg.value, block.timestamp);\n    }\n\n    // Get the last N transactions\n    function getLastTransactions(uint _count) public view returns (uint[] memory, Transaction[] memory) {\n        uint length = transactions.length;\n        if (_count > length) {\n            _count = length;\n        }\n        \n        uint[] memory ids = new uint[](_count);\n        Transaction[] memory lastTransactions = new Transaction[](_count);\n        \n        for (uint i = 0; i < _count; i++) {\n            uint index = length - i - 1;\n            ids[i] = index;\n            lastTransactions[i] = transactions[index];\n        }\n        \n        return (ids, lastTransactions);\n    }\n\n    // Get details of a specific transaction by ID\n    function getTransaction(uint _id) public view returns (uint, Transaction memory) {\n        require(_id < transactions.length, \"Transaction does not exist\");\n        return (_id, transactions[_id]);\n    }\n}",
  "sourcePath": "/Users/surafelmulaw/Documents/Web-3/eth-transaction-agent/contracts/EthTransactionManager.sol",
  "compiler": {
    "name": "solc",
    "version": "0.8.0+commit.c7dfd78e.Emscripten.clang"
  },
  "schemaVersion": "3.4.16",
  "updatedAt": "2025-01-14T14:03:02.238Z",
  "networkType": "ethereum",
  "devdoc": {
    "kind": "dev",
    "methods": {},
    "version": 1
  },
  "userdoc": {
    "kind": "user",
    "methods": {},
    "version": 1
  }
}