{
  "contractName": "EthTransactionManager",
  "abi": [
    {
      "anonymous": false,
      "inputs": [
        {
          "indexed": true,
          "internalType": "address",
          "name": "sender",
          "type": "address"
        },
        {
          "indexed": true,
          "internalType": "address",
          "name": "recipient",
          "type": "address"
        },
        {
          "indexed": false,
          "internalType": "uint256",
          "name": "amount",
          "type": "uint256"
        },
        {
          "indexed": false,
          "internalType": "string",
          "name": "reason",
          "type": "string"
        }
      ],
      "name": "Transfer",
      "type": "event"
    },
    {
      "inputs": [
        {
          "internalType": "uint256",
          "name": "",
          "type": "uint256"
        }
      ],
      "name": "transactions",
      "outputs": [
        {
          "internalType": "address",
          "name": "sender",
          "type": "address"
        },
        {
          "internalType": "address",
          "name": "recipient",
          "type": "address"
        },
        {
          "internalType": "uint256",
          "name": "amount",
          "type": "uint256"
        },
        {
          "internalType": "uint256",
          "name": "timestamp",
          "type": "uint256"
        },
        {
          "internalType": "string",
          "name": "reason",
          "type": "string"
        }
      ],
      "stateMutability": "view",
      "type": "function",
      "constant": true
    },
    {
      "inputs": [
        {
          "internalType": "address",
          "name": "_recipient",
          "type": "address"
        },
        {
          "internalType": "string",
          "name": "_reason",
          "type": "string"
        }
      ],
      "name": "transferETH",
      "outputs": [],
      "stateMutability": "payable",
      "type": "function",
      "payable": true
    },
    {
      "inputs": [
        {
          "internalType": "uint256",
          "name": "_count",
          "type": "uint256"
        }
      ],
      "name": "getLastTransactions",
      "outputs": [
        {
          "internalType": "uint256[]",
          "name": "",
          "type": "uint256[]"
        },
        {
          "components": [
            {
              "internalType": "address",
              "name": "sender",
              "type": "address"
            },
            {
              "internalType": "address",
              "name": "recipient",
              "type": "address"
            },
            {
              "internalType": "uint256",
              "name": "amount",
              "type": "uint256"
            },
            {
              "internalType": "uint256",
              "name": "timestamp",
              "type": "uint256"
            },
            {
              "internalType": "string",
              "name": "reason",
              "type": "string"
            }
          ],
          "internalType": "struct EthTransactionManager.Transaction[]",
          "name": "",
          "type": "tuple[]"
        }
      ],
      "stateMutability": "view",
      "type": "function",
      "constant": true
    },
    {
      "inputs": [
        {
          "internalType": "uint256",
          "name": "_id",
          "type": "uint256"
        }
      ],
      "name": "getTransaction",
      "outputs": [
        {
          "internalType": "uint256",
          "name": "",
          "type": "uint256"
        },
        {
          "components": [
            {
              "internalType": "address",
              "name": "sender",
              "type": "address"
            },
            {
              "internalType": "address",
              "name": "recipient",
              "type": "address"
            },
            {
              "internalType": "uint256",
              "name": "amount",
              "type": "uint256"
            },
            {
              "internalType": "uint256",
              "name": "timestamp",
              "type": "uint256"
            },
            {
              "internalType": "string",
              "name": "reason",
              "type": "string"
            }
          ],
          "internalType": "struct EthTransactionManager.Transaction",
          "name": "",
          "type": "tuple"
        }
      ],
      "stateMutability": "view",
      "type": "function",
      "constant": true
    }
  ],
  "bytecode": "0x608060405234801561001057600080fd5b50611323806100206000396000f3fe60806040526004361061003f5760003560e01c8063044684f61461004457806333ea3dc8146100825780638dae1d0d146100c05780639ace38c2146100dc575b600080fd5b34801561005057600080fd5b5061006b60048036038101906100669190610b81565b61011d565b604051610079929190610f1d565b60405180910390f35b34801561008e57600080fd5b506100a960048036038101906100a49190610b81565b61049f565b6040516100b7929190610fc4565b60405180910390f35b6100da60048036038101906100d59190610b2d565b6106a2565b005b3480156100e857600080fd5b5061010360048036038101906100fe9190610b81565b61088f565b604051610114959493929190610ec3565b60405180910390f35b60608060008080549050905080841115610135578093505b60008467ffffffffffffffff811115610177577f4e487b7100000000000000000000000000000000000000000000000000000000600052604160045260246000fd5b6040519080825280602002602001820160405280156101a55781602001602082028036833780820191505090505b50905060008567ffffffffffffffff8111156101ea577f4e487b7100000000000000000000000000000000000000000000000000000000600052604160045260246000fd5b60405190808252806020026020018201604052801561022357816020015b61021061099d565b8152602001906001900390816102085790505b50905060005b868110156104905760006001828661024191906110f4565b61024b91906110f4565b905080848381518110610287577f4e487b7100000000000000000000000000000000000000000000000000000000600052603260045260246000fd5b602002602001018181525050600081815481106102cd577f4e487b7100000000000000000000000000000000000000000000000000000000600052603260045260246000fd5b90600052602060002090600502016040518060a00160405290816000820160009054906101000a900473ffffffffffffffffffffffffffffffffffffffff1673ffffffffffffffffffffffffffffffffffffffff1673ffffffffffffffffffffffffffffffffffffffff1681526020016001820160009054906101000a900473ffffffffffffffffffffffffffffffffffffffff1673ffffffffffffffffffffffffffffffffffffffff1673ffffffffffffffffffffffffffffffffffffffff16815260200160028201548152602001600382015481526020016004820180546103b6906111a6565b80601f01602080910402602001604051908101604052809291908181526020018280546103e2906111a6565b801561042f5780601f106104045761010080835404028352916020019161042f565b820191906000526020600020905b81548152906001019060200180831161041257829003601f168201915b505050505081525050838381518110610471577f4e487b7100000000000000000000000000000000000000000000000000000000600052603260045260246000fd5b6020026020010181905250508080610488906111d8565b915050610229565b50818194509450505050915091565b60006104a961099d565b60008054905083106104f0576040517f08c379a00000000000000000000000000000000000000000000000000000000081526004016104e790610f74565b60405180910390fd5b826000848154811061052b577f4e487b7100000000000000000000000000000000000000000000000000000000600052603260045260246000fd5b9060005260206000209060050201806040518060a00160405290816000820160009054906101000a900473ffffffffffffffffffffffffffffffffffffffff1673ffffffffffffffffffffffffffffffffffffffff1673ffffffffffffffffffffffffffffffffffffffff1681526020016001820160009054906101000a900473ffffffffffffffffffffffffffffffffffffffff1673ffffffffffffffffffffffffffffffffffffffff1673ffffffffffffffffffffffffffffffffffffffff1681526020016002820154815260200160038201548152602001600482018054610615906111a6565b80601f0160208091040260200160405190810160405280929190818152602001828054610641906111a6565b801561068e5780601f106106635761010080835404028352916020019161068e565b820191906000526020600020905b81548152906001019060200180831161067157829003601f168201915b505050505081525050905091509150915091565b600034116106e5576040517f08c379a00000000000000000000000000000000000000000000000000000000081526004016106dc90610f54565b60405180910390fd5b60006040518060a001604052803373ffffffffffffffffffffffffffffffffffffffff1681526020018473ffffffffffffffffffffffffffffffffffffffff16815260200134815260200142815260200183815250908060018154018082558091505060019003906000526020600020906005020160009091909190915060008201518160000160006101000a81548173ffffffffffffffffffffffffffffffffffffffff021916908373ffffffffffffffffffffffffffffffffffffffff16021790555060208201518160010160006101000a81548173ffffffffffffffffffffffffffffffffffffffff021916908373ffffffffffffffffffffffffffffffffffffffff160217905550604082015181600201556060820151816003015560808201518160040190805190602001906108219291906109f8565b5050508173ffffffffffffffffffffffffffffffffffffffff163373ffffffffffffffffffffffffffffffffffffffff167fcd6e659e4c2e75c3bfe47fecaccf39aeb368116a0ee52afb532e07f6cba6c0d13484604051610883929190610f94565b60405180910390a35050565b6000818154811061089f57600080fd5b90600052602060002090600502016000915090508060000160009054906101000a900473ffffffffffffffffffffffffffffffffffffffff16908060010160009054906101000a900473ffffffffffffffffffffffffffffffffffffffff169080600201549080600301549080600401805461091a906111a6565b80601f0160208091040260200160405190810160405280929190818152602001828054610946906111a6565b80156109935780601f1061096857610100808354040283529160200191610993565b820191906000526020600020905b81548152906001019060200180831161097657829003601f168201915b5050505050905085565b6040518060a00160405280600073ffffffffffffffffffffffffffffffffffffffff168152602001600073ffffffffffffffffffffffffffffffffffffffff1681526020016000815260200160008152602001606081525090565b828054610a04906111a6565b90600052602060002090601f016020900481019282610a265760008555610a6d565b82601f10610a3f57805160ff1916838001178555610a6d565b82800160010185558215610a6d579182015b82811115610a6c578251825591602001919060010190610a51565b5b509050610a7a9190610a7e565b5090565b5b80821115610a97576000816000905550600101610a7f565b5090565b6000610aae610aa984611025565b610ff4565b905082815260208101848484011115610ac657600080fd5b610ad1848285611164565b509392505050565b600081359050610ae8816112bf565b92915050565b600082601f830112610aff57600080fd5b8135610b0f848260208601610a9b565b91505092915050565b600081359050610b27816112d6565b92915050565b60008060408385031215610b4057600080fd5b6000610b4e85828601610ad9565b925050602083013567ffffffffffffffff811115610b6b57600080fd5b610b7785828601610aee565b9150509250929050565b600060208284031215610b9357600080fd5b6000610ba184828501610b18565b91505092915050565b6000610bb68383610db9565b905092915050565b6000610bca8383610ea5565b60208301905092915050565b610bdf81611128565b82525050565b610bee81611128565b82525050565b6000610bff82611075565b610c0981856110b0565b935083602082028501610c1b85611055565b8060005b85811015610c575784840389528151610c388582610baa565b9450610c4383611096565b925060208a01995050600181019050610c1f565b50829750879550505050505092915050565b6000610c7482611080565b610c7e81856110c1565b9350610c8983611065565b8060005b83811015610cba578151610ca18882610bbe565b9750610cac836110a3565b925050600181019050610c8d565b5085935050505092915050565b6000610cd28261108b565b610cdc81856110d2565b9350610cec818560208601611173565b610cf5816112ae565b840191505092915050565b6000610d0b8261108b565b610d1581856110e3565b9350610d25818560208601611173565b610d2e816112ae565b840191505092915050565b6000610d46601d836110e3565b91507f416d6f756e74206d7573742062652067726561746572207468616e20300000006000830152602082019050919050565b6000610d86601a836110e3565b91507f5472616e73616374696f6e20646f6573206e6f742065786973740000000000006000830152602082019050919050565b600060a083016000830151610dd16000860182610bd6565b506020830151610de46020860182610bd6565b506040830151610df76040860182610ea5565b506060830151610e0a6060860182610ea5565b5060808301518482036080860152610e228282610cc7565b9150508091505092915050565b600060a083016000830151610e476000860182610bd6565b506020830151610e5a6020860182610bd6565b506040830151610e6d6040860182610ea5565b506060830151610e806060860182610ea5565b5060808301518482036080860152610e988282610cc7565b9150508091505092915050565b610eae8161115a565b82525050565b610ebd8161115a565b82525050565b600060a082019050610ed86000830188610be5565b610ee56020830187610be5565b610ef26040830186610eb4565b610eff6060830185610eb4565b8181036080830152610f118184610d00565b90509695505050505050565b60006040820190508181036000830152610f378185610c69565b90508181036020830152610f4b8184610bf4565b90509392505050565b60006020820190508181036000830152610f6d81610d39565b9050919050565b60006020820190508181036000830152610f8d81610d79565b9050919050565b6000604082019050610fa96000830185610eb4565b8181036020830152610fbb8184610d00565b90509392505050565b6000604082019050610fd96000830185610eb4565b8181036020830152610feb8184610e2f565b90509392505050565b6000604051905081810181811067ffffffffffffffff8211171561101b5761101a61127f565b5b8060405250919050565b600067ffffffffffffffff8211156110405761103f61127f565b5b601f19601f8301169050602081019050919050565b6000819050602082019050919050565b6000819050602082019050919050565b600081519050919050565b600081519050919050565b600081519050919050565b6000602082019050919050565b6000602082019050919050565b600082825260208201905092915050565b600082825260208201905092915050565b600082825260208201905092915050565b600082825260208201905092915050565b60006110ff8261115a565b915061110a8361115a565b92508282101561111d5761111c611221565b5b828203905092915050565b60006111338261113a565b9050919050565b600073ffffffffffffffffffffffffffffffffffffffff82169050919050565b6000819050919050565b82818337600083830152505050565b60005b83811015611191578082015181840152602081019050611176565b838111156111a0576000848401525b50505050565b600060028204905060018216806111be57607f821691505b602082108114156111d2576111d1611250565b5b50919050565b60006111e38261115a565b91507fffffffffffffffffffffffffffffffffffffffffffffffffffffffffffffffff82141561121657611215611221565b5b600182019050919050565b7f4e487b7100000000000000000000000000000000000000000000000000000000600052601160045260246000fd5b7f4e487b7100000000000000000000000000000000000000000000000000000000600052602260045260246000fd5b7f4e487b7100000000000000000000000000000000000000000000000000000000600052604160045260246000fd5b6000601f19601f8301169050919050565b6112c881611128565b81146112d357600080fd5b50565b6112df8161115a565b81146112ea57600080fd5b5056fea264697066735822122041a94a41f18451b55eef8c982d656145e0402f78c71e1d10719f64b194e2cf6d64736f6c63430008000033",
  "immutableReferences": {},
  "source": "// SPDX-License-Identifier: MIT\npragma solidity ^0.8.0;\n\ncontract EthTransactionManager {\n    struct Transaction {\n        address sender;\n        address recipient;\n        uint amount;\n        uint timestamp;\n        string reason;\n    }\n\n    Transaction[] public transactions;\n\n    event Transfer(address indexed sender, address indexed recipient, uint256 amount, string reason);\n\n    // Transfer ETH and log the transaction\n    function transferETH(address _recipient, string memory _reason) public payable {\n        require(msg.value > 0, \"Amount must be greater than 0\");\n\n        transactions.push(Transaction({\n            sender: msg.sender,\n            recipient: _recipient,\n            amount: msg.value,\n            timestamp: block.timestamp,\n            reason: _reason\n        }));\n\n        emit Transfer(msg.sender, _recipient, msg.value, _reason);\n    }\n\n    // Get the last N transactions\n    function getLastTransactions(uint _count) public view returns (uint[] memory, Transaction[] memory) {\n        uint length = transactions.length;\n        if (_count > length) {\n            _count = length;\n        }\n        \n        uint[] memory ids = new uint[](_count);\n        Transaction[] memory lastTransactions = new Transaction[](_count);\n        \n        for (uint i = 0; i < _count; i++) {\n            uint index = length - i - 1;\n            ids[i] = index;\n            lastTransactions[i] = transactions[index];\n        }\n        \n        return (ids, lastTransactions);\n    }\n\n    // Get details of a specific transaction by ID\n    function getTransaction(uint _id) public view returns (uint, Transaction memory) {\n        require(_id < transactions.length, \"Transaction does not exist\");\n        return (_id, transactions[_id]);\n    }\n}",
  "sourcePath": "/Users/surafelmulaw/Documents/Web-3/eth-transaction-agent/contracts/EthTransactionManager.sol",
  "compiler": {
    "name": "solc",
    "version": "0.8.0+commit.c7dfd78e.Emscripten.clang"
  },
  "schemaVersion": "3.4.16",
  "updatedAt": "2025-01-23T10:12:39.090Z",
  "networkType": "ethereum",
  "devdoc": {
    "kind": "dev",
    "methods": {},
    "version": 1
  },
  "userdoc": {
    "kind": "user",
    "methods": {},
    "version": 1
  }
}