{
  "contractName": "EthTransactionManager",
  "abi": [
    {
      "anonymous": false,
      "inputs": [
        {
          "indexed": true,
          "internalType": "address",
          "name": "from",
          "type": "address"
        },
        {
          "indexed": true,
          "internalType": "address",
          "name": "to",
          "type": "address"
        },
        {
          "indexed": false,
          "internalType": "uint256",
          "name": "amount",
          "type": "uint256"
        },
        {
          "indexed": false,
          "internalType": "uint256",
          "name": "timestamp",
          "type": "uint256"
        }
      ],
      "name": "Transfer",
      "type": "event"
    },
    {
      "inputs": [
        {
          "internalType": "uint256",
          "name": "",
          "type": "uint256"
        }
      ],
      "name": "transactions",
      "outputs": [
        {
          "internalType": "address",
          "name": "sender",
          "type": "address"
        },
        {
          "internalType": "address",
          "name": "recipient",
          "type": "address"
        },
        {
          "internalType": "uint256",
          "name": "amount",
          "type": "uint256"
        },
        {
          "internalType": "uint256",
          "name": "timestamp",
          "type": "uint256"
        }
      ],
      "stateMutability": "view",
      "type": "function"
    },
    {
      "inputs": [
        {
          "internalType": "address payable",
          "name": "_recipient",
          "type": "address"
        }
      ],
      "name": "transferETH",
      "outputs": [],
      "stateMutability": "payable",
      "type": "function"
    },
    {
      "inputs": [
        {
          "internalType": "uint256",
          "name": "_count",
          "type": "uint256"
        }
      ],
      "name": "getLastTransactions",
      "outputs": [
        {
          "components": [
            {
              "internalType": "address",
              "name": "sender",
              "type": "address"
            },
            {
              "internalType": "address",
              "name": "recipient",
              "type": "address"
            },
            {
              "internalType": "uint256",
              "name": "amount",
              "type": "uint256"
            },
            {
              "internalType": "uint256",
              "name": "timestamp",
              "type": "uint256"
            }
          ],
          "internalType": "struct EthTransactionManager.Transaction[]",
          "name": "",
          "type": "tuple[]"
        }
      ],
      "stateMutability": "view",
      "type": "function"
    },
    {
      "inputs": [
        {
          "internalType": "uint256",
          "name": "_id",
          "type": "uint256"
        }
      ],
      "name": "getTransaction",
      "outputs": [
        {
          "components": [
            {
              "internalType": "address",
              "name": "sender",
              "type": "address"
            },
            {
              "internalType": "address",
              "name": "recipient",
              "type": "address"
            },
            {
              "internalType": "uint256",
              "name": "amount",
              "type": "uint256"
            },
            {
              "internalType": "uint256",
              "name": "timestamp",
              "type": "uint256"
            }
          ],
          "internalType": "struct EthTransactionManager.Transaction",
          "name": "",
          "type": "tuple"
        }
      ],
      "stateMutability": "view",
      "type": "function"
    }
  ],
  "bytecode": "0x608060405234801561001057600080fd5b50610c68806100206000396000f3fe60806040526004361061003f5760003560e01c8063044684f61461004457806333ea3dc8146100815780639ace38c2146100be578063d50f6bf0146100fe575b600080fd5b34801561005057600080fd5b5061006b60048036038101906100669190610736565b61011a565b60405161007891906108b7565b60405180910390f35b34801561008d57600080fd5b506100a860048036038101906100a39190610736565b6102d4565b6040516100b5919061092e565b60405180910390f35b3480156100ca57600080fd5b506100e560048036038101906100e09190610736565b610417565b6040516100f59493929190610967565b60405180910390f35b610118600480360381019061011391906109ea565b610497565b005b606060008080549050905080831115610131578092505b60008367ffffffffffffffff81111561014d5761014c610a17565b5b60405190808252806020026020018201604052801561018657816020015b6101736106a7565b81526020019060019003908161016b5790505b50905060005b848110156102c9576000600182856101a49190610a75565b6101ae9190610a75565b815481106101bf576101be610aa9565b5b90600052602060002090600402016040518060800160405290816000820160009054906101000a900473ffffffffffffffffffffffffffffffffffffffff1673ffffffffffffffffffffffffffffffffffffffff1673ffffffffffffffffffffffffffffffffffffffff1681526020016001820160009054906101000a900473ffffffffffffffffffffffffffffffffffffffff1673ffffffffffffffffffffffffffffffffffffffff1673ffffffffffffffffffffffffffffffffffffffff168152602001600282015481526020016003820154815250508282815181106102ab576102aa610aa9565b5b602002602001018190525080806102c190610ad8565b91505061018c565b508092505050919050565b6102dc6106a7565b6000805490508210610323576040517f08c379a000000000000000000000000000000000000000000000000000000000815260040161031a90610b7d565b60405180910390fd5b6000828154811061033757610336610aa9565b5b90600052602060002090600402016040518060800160405290816000820160009054906101000a900473ffffffffffffffffffffffffffffffffffffffff1673ffffffffffffffffffffffffffffffffffffffff1673ffffffffffffffffffffffffffffffffffffffff1681526020016001820160009054906101000a900473ffffffffffffffffffffffffffffffffffffffff1673ffffffffffffffffffffffffffffffffffffffff1673ffffffffffffffffffffffffffffffffffffffff168152602001600282015481526020016003820154815250509050919050565b6000818154811061042757600080fd5b90600052602060002090600402016000915090508060000160009054906101000a900473ffffffffffffffffffffffffffffffffffffffff16908060010160009054906101000a900473ffffffffffffffffffffffffffffffffffffffff16908060020154908060030154905084565b600034116104da576040517f08c379a00000000000000000000000000000000000000000000000000000000081526004016104d190610be9565b60405180910390fd5b8073ffffffffffffffffffffffffffffffffffffffff166108fc349081150290604051600060405180830381858888f19350505050158015610520573d6000803e3d6000fd5b50600060405180608001604052803373ffffffffffffffffffffffffffffffffffffffff1681526020018373ffffffffffffffffffffffffffffffffffffffff16815260200134815260200142815250908060018154018082558091505060019003906000526020600020906004020160009091909190915060008201518160000160006101000a81548173ffffffffffffffffffffffffffffffffffffffff021916908373ffffffffffffffffffffffffffffffffffffffff16021790555060208201518160010160006101000a81548173ffffffffffffffffffffffffffffffffffffffff021916908373ffffffffffffffffffffffffffffffffffffffff160217905550604082015181600201556060820151816003015550508073ffffffffffffffffffffffffffffffffffffffff163373ffffffffffffffffffffffffffffffffffffffff167f9ed053bb818ff08b8353cd46f78db1f0799f31c9e4458fdb425c10eccd2efc44344260405161069c929190610c09565b60405180910390a350565b6040518060800160405280600073ffffffffffffffffffffffffffffffffffffffff168152602001600073ffffffffffffffffffffffffffffffffffffffff16815260200160008152602001600081525090565b600080fd5b6000819050919050565b61071381610700565b811461071e57600080fd5b50565b6000813590506107308161070a565b92915050565b60006020828403121561074c5761074b6106fb565b5b600061075a84828501610721565b91505092915050565b600081519050919050565b600082825260208201905092915050565b6000819050602082019050919050565b600073ffffffffffffffffffffffffffffffffffffffff82169050919050565b60006107ba8261078f565b9050919050565b6107ca816107af565b82525050565b6107d981610700565b82525050565b6080820160008201516107f560008501826107c1565b50602082015161080860208501826107c1565b50604082015161081b60408501826107d0565b50606082015161082e60608501826107d0565b50505050565b600061084083836107df565b60808301905092915050565b6000602082019050919050565b600061086482610763565b61086e818561076e565b93506108798361077f565b8060005b838110156108aa5781516108918882610834565b975061089c8361084c565b92505060018101905061087d565b5085935050505092915050565b600060208201905081810360008301526108d18184610859565b905092915050565b6080820160008201516108ef60008501826107c1565b50602082015161090260208501826107c1565b50604082015161091560408501826107d0565b50606082015161092860608501826107d0565b50505050565b600060808201905061094360008301846108d9565b92915050565b610952816107af565b82525050565b61096181610700565b82525050565b600060808201905061097c6000830187610949565b6109896020830186610949565b6109966040830185610958565b6109a36060830184610958565b95945050505050565b60006109b78261078f565b9050919050565b6109c7816109ac565b81146109d257600080fd5b50565b6000813590506109e4816109be565b92915050565b600060208284031215610a00576109ff6106fb565b5b6000610a0e848285016109d5565b91505092915050565b7f4e487b7100000000000000000000000000000000000000000000000000000000600052604160045260246000fd5b7f4e487b7100000000000000000000000000000000000000000000000000000000600052601160045260246000fd5b6000610a8082610700565b9150610a8b83610700565b9250828203905081811115610aa357610aa2610a46565b5b92915050565b7f4e487b7100000000000000000000000000000000000000000000000000000000600052603260045260246000fd5b6000610ae382610700565b91507fffffffffffffffffffffffffffffffffffffffffffffffffffffffffffffffff8203610b1557610b14610a46565b5b600182019050919050565b600082825260208201905092915050565b7f5472616e73616374696f6e20646f6573206e6f74206578697374000000000000600082015250565b6000610b67601a83610b20565b9150610b7282610b31565b602082019050919050565b60006020820190508181036000830152610b9681610b5a565b9050919050565b7f416d6f756e74206d7573742062652067726561746572207468616e207a65726f600082015250565b6000610bd3602083610b20565b9150610bde82610b9d565b602082019050919050565b60006020820190508181036000830152610c0281610bc6565b9050919050565b6000604082019050610c1e6000830185610958565b610c2b6020830184610958565b939250505056fea2646970667358221220cb97a6a8fcdf3c1097886af9c1da5b7800d04c8527131cb14b666f3f096dbdb064736f6c63430008110033",
  "immutableReferences": {},
  "source": "// SPDX-License-Identifier: MIT\npragma solidity ^0.8.0;\n\ncontract EthTransactionManager {\n    struct Transaction {\n        address sender;\n        address recipient;\n        uint amount;\n        uint timestamp;\n    }\n\n    Transaction[] public transactions;\n\n    event Transfer(address indexed from, address indexed to, uint amount, uint timestamp);\n\n    // Transfer ETH and log the transaction\n    function transferETH(address payable _recipient) public payable {\n        require(msg.value > 0, \"Amount must be greater than zero\");\n        _recipient.transfer(msg.value);\n        transactions.push(Transaction(msg.sender, _recipient, msg.value, block.timestamp));\n        emit Transfer(msg.sender, _recipient, msg.value, block.timestamp);\n    }\n\n    // Get the last N transactions\n    function getLastTransactions(uint _count) public view returns (Transaction[] memory) {\n        uint length = transactions.length;\n        if (_count > length) {\n            _count = length;\n        }\n        Transaction[] memory lastTransactions = new Transaction[](_count);\n        for (uint i = 0; i < _count; i++) {\n            lastTransactions[i] = transactions[length - i - 1];\n        }\n        return lastTransactions;\n    }\n\n    // Get details of a specific transaction by ID\n    function getTransaction(uint _id) public view returns (Transaction memory) {\n        require(_id < transactions.length, \"Transaction does not exist\");\n        return transactions[_id];\n    }\n}",
  "sourcePath": "/Users/surafelmulaw/Documents/Web-3/eth-transaction-agent/contracts/EthTransactionManager.sol",
  "compiler": {
    "name": "solc",
    "version": "0.8.17+commit.8df45f5f.Emscripten.clang"
  },
  "schemaVersion": "3.4.16",
  "updatedAt": "2025-01-14T10:40:03.827Z",
  "devdoc": {
    "kind": "dev",
    "methods": {},
    "version": 1
  },
  "userdoc": {
    "kind": "user",
    "methods": {},
    "version": 1
  }
}